{
  "_format": "hh-sol-artifact-1",
  "contractName": "Account",
  "sourceName": "contracts/Account.sol",
  "abi": [
    {
      "inputs": [
        {
          "internalType": "address",
          "name": "_crossChainExecutorList",
          "type": "address"
        }
      ],
      "stateMutability": "nonpayable",
      "type": "constructor"
    },
    {
      "inputs": [],
      "name": "AccountLocked",
      "type": "error"
    },
    {
      "inputs": [],
      "name": "ExceedsMaxLockTime",
      "type": "error"
    },
    {
      "inputs": [
        {
          "internalType": "uint256",
          "name": "_size",
          "type": "uint256"
        },
        {
          "internalType": "uint256",
          "name": "_start",
          "type": "uint256"
        },
        {
          "internalType": "uint256",
          "name": "_end",
          "type": "uint256"
        }
      ],
      "name": "InvalidCodeAtRange",
      "type": "error"
    },
    {
      "inputs": [],
      "name": "NotAuthorized",
      "type": "error"
    },
    {
      "anonymous": false,
      "inputs": [
        {
          "indexed": false,
          "internalType": "address",
          "name": "from",
          "type": "address"
        },
        {
          "indexed": false,
          "internalType": "address",
          "name": "to",
          "type": "address"
        },
        {
          "indexed": false,
          "internalType": "uint256[]",
          "name": "tokenIds",
          "type": "uint256[]"
        },
        {
          "indexed": false,
          "internalType": "uint256[]",
          "name": "amounts",
          "type": "uint256[]"
        }
      ],
      "name": "BatchErc1155TokensTransferred",
      "type": "event"
    },
    {
      "anonymous": false,
      "inputs": [
        {
          "indexed": false,
          "internalType": "address",
          "name": "owner",
          "type": "address"
        },
        {
          "indexed": false,
          "internalType": "address",
          "name": "executor",
          "type": "address"
        }
      ],
      "name": "ExecutorUpdated",
      "type": "event"
    },
    {
      "anonymous": false,
      "inputs": [
        {
          "indexed": false,
          "internalType": "uint256",
          "name": "timestamp",
          "type": "uint256"
        }
      ],
      "name": "LockUpdated",
      "type": "event"
    },
    {
      "anonymous": false,
      "inputs": [
        {
          "indexed": false,
          "internalType": "address",
          "name": "from",
          "type": "address"
        },
        {
          "indexed": false,
          "internalType": "address",
          "name": "to",
          "type": "address"
        },
        {
          "indexed": false,
          "internalType": "uint256",
          "name": "tokenId",
          "type": "uint256"
        }
      ],
      "name": "NFTTransferred",
      "type": "event"
    },
    {
      "anonymous": false,
      "inputs": [
        {
          "indexed": false,
          "internalType": "address",
          "name": "from",
          "type": "address"
        },
        {
          "indexed": false,
          "internalType": "address",
          "name": "to",
          "type": "address"
        },
        {
          "indexed": false,
          "internalType": "uint256",
          "name": "tokenId",
          "type": "uint256"
        },
        {
          "indexed": false,
          "internalType": "uint256",
          "name": "amount",
          "type": "uint256"
        }
      ],
      "name": "TokenTransferred",
      "type": "event"
    },
    {
      "stateMutability": "payable",
      "type": "fallback"
    },
    {
      "inputs": [
        {
          "internalType": "address",
          "name": "tokenCollection",
          "type": "address"
        },
        {
          "internalType": "address",
          "name": "to",
          "type": "address"
        },
        {
          "internalType": "uint256[]",
          "name": "tokenIds",
          "type": "uint256[]"
        },
        {
          "internalType": "uint256[]",
          "name": "amounts",
          "type": "uint256[]"
        }
      ],
      "name": "batchTransferERC1155Tokens",
      "outputs": [],
      "stateMutability": "nonpayable",
      "type": "function"
    },
    {
      "inputs": [],
      "name": "crossChainExecutorList",
      "outputs": [
        {
          "internalType": "contract CrossChainExecutorList",
          "name": "",
          "type": "address"
        }
      ],
      "stateMutability": "view",
      "type": "function"
    },
    {
      "inputs": [
        {
          "internalType": "address",
          "name": "to",
          "type": "address"
        },
        {
          "internalType": "uint256",
          "name": "value",
          "type": "uint256"
        },
        {
          "internalType": "bytes",
          "name": "data",
          "type": "bytes"
        }
      ],
      "name": "executeCall",
      "outputs": [
        {
          "internalType": "bytes",
          "name": "result",
          "type": "bytes"
        }
      ],
      "stateMutability": "payable",
      "type": "function"
    },
    {
      "inputs": [
        {
          "internalType": "address",
          "name": "to",
          "type": "address"
        },
        {
          "internalType": "uint256",
          "name": "value",
          "type": "uint256"
        },
        {
          "internalType": "bytes",
          "name": "data",
          "type": "bytes"
        }
      ],
      "name": "executeCrossChainCall",
      "outputs": [
        {
          "internalType": "bytes",
          "name": "result",
          "type": "bytes"
        }
      ],
      "stateMutability": "payable",
      "type": "function"
    },
    {
      "inputs": [
        {
          "internalType": "address",
          "name": "to",
          "type": "address"
        },
        {
          "internalType": "uint256",
          "name": "value",
          "type": "uint256"
        },
        {
          "internalType": "bytes",
          "name": "data",
          "type": "bytes"
        }
      ],
      "name": "executeTrustedCall",
      "outputs": [
        {
          "internalType": "bytes",
          "name": "result",
          "type": "bytes"
        }
      ],
      "stateMutability": "payable",
      "type": "function"
    },
    {
      "inputs": [
        {
          "internalType": "address",
          "name": "",
          "type": "address"
        }
      ],
      "name": "executor",
      "outputs": [
        {
          "internalType": "address",
          "name": "",
          "type": "address"
        }
      ],
      "stateMutability": "view",
      "type": "function"
    },
    {
      "inputs": [
        {
          "internalType": "address",
          "name": "caller",
          "type": "address"
        }
      ],
      "name": "isAuthorized",
      "outputs": [
        {
          "internalType": "bool",
          "name": "",
          "type": "bool"
        }
      ],
      "stateMutability": "view",
      "type": "function"
    },
    {
      "inputs": [],
      "name": "isLocked",
      "outputs": [
        {
          "internalType": "bool",
          "name": "",
          "type": "bool"
        }
      ],
      "stateMutability": "view",
      "type": "function"
    },
    {
      "inputs": [
        {
          "internalType": "bytes32",
          "name": "hash",
          "type": "bytes32"
        },
        {
          "internalType": "bytes",
          "name": "signature",
          "type": "bytes"
        }
      ],
      "name": "isValidSignature",
      "outputs": [
        {
          "internalType": "bytes4",
          "name": "magicValue",
          "type": "bytes4"
        }
      ],
      "stateMutability": "view",
      "type": "function"
    },
    {
      "inputs": [
        {
          "internalType": "uint256",
          "name": "_unlockTimestamp",
          "type": "uint256"
        }
      ],
      "name": "lock",
      "outputs": [],
      "stateMutability": "nonpayable",
      "type": "function"
    },
    {
      "inputs": [
        {
          "internalType": "address",
          "name": "",
          "type": "address"
        },
        {
          "internalType": "address",
          "name": "",
          "type": "address"
        },
        {
          "internalType": "uint256[]",
          "name": "",
          "type": "uint256[]"
        },
        {
          "internalType": "uint256[]",
          "name": "",
          "type": "uint256[]"
        },
        {
          "internalType": "bytes",
          "name": "",
          "type": "bytes"
        }
      ],
      "name": "onERC1155BatchReceived",
      "outputs": [
        {
          "internalType": "bytes4",
          "name": "",
          "type": "bytes4"
        }
      ],
      "stateMutability": "nonpayable",
      "type": "function"
    },
    {
      "inputs": [
        {
          "internalType": "address",
          "name": "",
          "type": "address"
        },
        {
          "internalType": "address",
          "name": "",
          "type": "address"
        },
        {
          "internalType": "uint256",
          "name": "",
          "type": "uint256"
        },
        {
          "internalType": "uint256",
          "name": "",
          "type": "uint256"
        },
        {
          "internalType": "bytes",
          "name": "",
          "type": "bytes"
        }
      ],
      "name": "onERC1155Received",
      "outputs": [
        {
          "internalType": "bytes4",
          "name": "",
          "type": "bytes4"
        }
      ],
      "stateMutability": "nonpayable",
      "type": "function"
    },
    {
      "inputs": [
        {
          "internalType": "address",
          "name": "",
          "type": "address"
        },
        {
          "internalType": "address",
          "name": "",
          "type": "address"
        },
        {
          "internalType": "uint256",
          "name": "",
          "type": "uint256"
        },
        {
          "internalType": "bytes",
          "name": "",
          "type": "bytes"
        }
      ],
      "name": "onERC721Received",
      "outputs": [
        {
          "internalType": "bytes4",
          "name": "",
          "type": "bytes4"
        }
      ],
      "stateMutability": "nonpayable",
      "type": "function"
    },
    {
      "inputs": [],
      "name": "owner",
      "outputs": [
        {
          "internalType": "address",
          "name": "",
          "type": "address"
        }
      ],
      "stateMutability": "view",
      "type": "function"
    },
    {
      "inputs": [
        {
          "internalType": "address",
          "name": "_executionModule",
          "type": "address"
        }
      ],
      "name": "setExecutor",
      "outputs": [],
      "stateMutability": "nonpayable",
      "type": "function"
    },
    {
      "inputs": [
        {
          "internalType": "bytes4",
          "name": "interfaceId",
          "type": "bytes4"
        }
      ],
      "name": "supportsInterface",
      "outputs": [
        {
          "internalType": "bool",
          "name": "",
          "type": "bool"
        }
      ],
      "stateMutability": "view",
      "type": "function"
    },
    {
      "inputs": [],
      "name": "token",
      "outputs": [
        {
          "internalType": "address",
          "name": "tokenCollection",
          "type": "address"
        },
        {
          "internalType": "uint256",
          "name": "tokenId",
          "type": "uint256"
        }
      ],
      "stateMutability": "view",
      "type": "function"
    },
    {
      "inputs": [
        {
          "internalType": "address",
          "name": "tokenCollection",
          "type": "address"
        },
        {
          "internalType": "address",
          "name": "to",
          "type": "address"
        },
        {
          "internalType": "uint256",
          "name": "tokenId",
          "type": "uint256"
        },
        {
          "internalType": "uint256",
          "name": "amount",
          "type": "uint256"
        }
      ],
      "name": "transferERC1155Tokens",
      "outputs": [],
      "stateMutability": "nonpayable",
      "type": "function"
    },
    {
      "inputs": [
        {
          "internalType": "address",
          "name": "tokenCollection",
          "type": "address"
        },
        {
          "internalType": "address",
          "name": "to",
          "type": "address"
        },
        {
          "internalType": "uint256",
          "name": "tokenId",
          "type": "uint256"
        }
      ],
      "name": "transferERC721Tokens",
      "outputs": [],
      "stateMutability": "nonpayable",
      "type": "function"
    },
    {
      "inputs": [],
      "name": "unlockTimestamp",
      "outputs": [
        {
          "internalType": "uint256",
          "name": "",
          "type": "uint256"
        }
      ],
      "stateMutability": "view",
      "type": "function"
    },
    {
      "stateMutability": "payable",
      "type": "receive"
    }
  ],
  "bytecode": "0x60a06040523480156200001157600080fd5b50604051620031b9380380620031b98339818101604052810190620000379190620000dc565b8073ffffffffffffffffffffffffffffffffffffffff1660808173ffffffffffffffffffffffffffffffffffffffff1681525050506200010e565b600080fd5b600073ffffffffffffffffffffffffffffffffffffffff82169050919050565b6000620000a48262000077565b9050919050565b620000b68162000097565b8114620000c257600080fd5b50565b600081519050620000d681620000ab565b92915050565b600060208284031215620000f557620000f462000072565b5b60006200010584828501620000c5565b91505092915050565b60805161308162000138600039600081816112e50152818161146601526116e601526130816000f3fe6080604052600436106101235760003560e01c80638da5cb5b116100a0578063bc197c8111610064578063bc197c8114610504578063dd46706414610541578063f23a6e611461056a578063fc0c546a146105a7578063fe9fbb80146105d35761012a565b80638da5cb5b146104235780639e5d4c491461044e578063a4e2d6341461047e578063aa082a9d146104a9578063ab2481b7146104d45761012a565b806348c7e528116100e757806348c7e5281461033957806365ed19f51461037657806377c9cb7c1461039f5780637cdc0252146103c857806387002135146103f85761012a565b806301ffc9a71461023057806313a4d7ad1461026d578063150b7a02146102965780631626ba7e146102d35780631c3c0ea8146103105761012a565b3661012a57005b600036606042600054111561016b576040517f6315bfbb00000000000000000000000000000000000000000000000000000000815260040160405180910390fd5b6000610175610610565b90506000600160008373ffffffffffffffffffffffffffffffffffffffff1673ffffffffffffffffffffffffffffffffffffffff16815260200190815260200160002060009054906101000a900473ffffffffffffffffffffffffffffffffffffffff16905060008173ffffffffffffffffffffffffffffffffffffffff163b03610213576040518060200160405280600081525092505050610225565b61022081600087876106ba565b925050505b915050805190602001f35b34801561023c57600080fd5b5061025760048036038101906102529190611ddc565b610747565b6040516102649190611e24565b60405180910390f35b34801561027957600080fd5b50610294600480360381019061028f919061202c565b6109e0565b005b3480156102a257600080fd5b506102bd60048036038101906102b89190612180565b610bef565b6040516102ca9190612212565b60405180910390f35b3480156102df57600080fd5b506102fa60048036038101906102f59190612263565b610c03565b6040516103079190612212565b60405180910390f35b34801561031c57600080fd5b50610337600480360381019061033291906122bf565b610d10565b005b34801561034557600080fd5b50610360600480360381019061035b91906122bf565b610e78565b60405161036d91906122fb565b60405180910390f35b34801561038257600080fd5b5061039d60048036038101906103989190612316565b610eab565b005b3480156103ab57600080fd5b506103c660048036038101906103c19190612369565b611047565b005b6103e260048036038101906103dd919061242b565b6111be565b6040516103ef919061251e565b60405180910390f35b34801561040457600080fd5b5061040d6112e3565b60405161041a919061259f565b60405180910390f35b34801561042f57600080fd5b50610438610610565b60405161044591906122fb565b60405180910390f35b6104686004803603810190610463919061242b565b611307565b604051610475919061251e565b60405180910390f35b34801561048a57600080fd5b506104936113cd565b6040516104a09190611e24565b60405180910390f35b3480156104b557600080fd5b506104be6113d9565b6040516104cb91906125c9565b60405180910390f35b6104ee60048036038101906104e9919061242b565b6113df565b6040516104fb919061251e565b60405180910390f35b34801561051057600080fd5b5061052b600480360381019061052691906125e4565b61154d565b6040516105389190612212565b60405180910390f35b34801561054d57600080fd5b50610568600480360381019061056391906126b3565b611562565b005b34801561057657600080fd5b50610591600480360381019061058c91906126e0565b61169a565b60405161059e9190612212565b60405180910390f35b3480156105b357600080fd5b506105bc6116af565b6040516105ca929190612777565b60405180910390f35b3480156105df57600080fd5b506105fa60048036038101906105f591906122bf565b6116c9565b6040516106079190611e24565b60405180910390f35b60008060008061061e6118fc565b92509250925046831461063757600093505050506106b7565b8173ffffffffffffffffffffffffffffffffffffffff16636352211e826040518263ffffffff1660e01b815260040161067091906125c9565b602060405180830381865afa15801561068d573d6000803e3d6000fd5b505050506040513d601f19601f820116820180604052508101906106b191906127b5565b93505050505b90565b606060008573ffffffffffffffffffffffffffffffffffffffff168585856040516106e6929190612812565b60006040518083038185875af1925050503d8060008114610723576040519150601f19603f3d011682016040523d82523d6000602084013e610728565b606091505b5080935081925050508061073e57815160208301fd5b50949350505050565b60007feff4d378000000000000000000000000000000000000000000000000000000007bffffffffffffffffffffffffffffffffffffffffffffffffffffffff1916827bffffffffffffffffffffffffffffffffffffffffffffffffffffffff1916148061081257507f4e2312e0000000000000000000000000000000000000000000000000000000007bffffffffffffffffffffffffffffffffffffffffffffffffffffffff1916827bffffffffffffffffffffffffffffffffffffffffffffffffffffffff1916145b8061087a57507f01ffc9a7000000000000000000000000000000000000000000000000000000007bffffffffffffffffffffffffffffffffffffffffffffffffffffffff1916827bffffffffffffffffffffffffffffffffffffffffffffffffffffffff1916145b1561088857600190506109db565b600060016000610896610610565b73ffffffffffffffffffffffffffffffffffffffff1673ffffffffffffffffffffffffffffffffffffffff16815260200190815260200160002060009054906101000a900473ffffffffffffffffffffffffffffffffffffffff169050600073ffffffffffffffffffffffffffffffffffffffff168173ffffffffffffffffffffffffffffffffffffffff161480610945575060008173ffffffffffffffffffffffffffffffffffffffff163b145b156109545760009150506109db565b8073ffffffffffffffffffffffffffffffffffffffff166301ffc9a7846040518263ffffffff1660e01b815260040161098d9190612212565b602060405180830381865afa9250505080156109c757506040513d601f19601f820116820180604052508101906109c49190612857565b60015b6109d55760009150506109db565b80925050505b919050565b8051825114610a24576040517f08c379a0000000000000000000000000000000000000000000000000000000008152600401610a1b90612907565b60405180910390fd5b600084905060005b8351811015610b3957828181518110610a4857610a47612927565b5b60200260200101518273ffffffffffffffffffffffffffffffffffffffff1662fdd58e30878581518110610a7f57610a7e612927565b5b60200260200101516040518363ffffffff1660e01b8152600401610aa4929190612777565b602060405180830381865afa158015610ac1573d6000803e3d6000fd5b505050506040513d601f19601f82011682018060405250810190610ae5919061296b565b1015610b26576040517f08c379a0000000000000000000000000000000000000000000000000000000008152600401610b1d90612a0a565b60405180910390fd5b8080610b3190612a59565b915050610a2c565b508073ffffffffffffffffffffffffffffffffffffffff16632eb2c2d6308686866040518563ffffffff1660e01b8152600401610b799493929190612b85565b600060405180830381600087803b158015610b9357600080fd5b505af1158015610ba7573d6000803e3d6000fd5b505050507f4436a461aa59807387858679f09fcffd161d54d4e12f6bb1c59b7edd28974ffb30858585604051610be09493929190612beb565b60405180910390a15050505050565b600063150b7a0260e01b9050949350505050565b6000426000541115610c185760009050610d0a565b6000610c22610610565b90506000600160008373ffffffffffffffffffffffffffffffffffffffff1673ffffffffffffffffffffffffffffffffffffffff16815260200190815260200160002060009054906101000a900473ffffffffffffffffffffffffffffffffffffffff169050600073ffffffffffffffffffffffffffffffffffffffff168173ffffffffffffffffffffffffffffffffffffffff1614158015610ccc5750610ccb818686611948565b5b15610ce257631626ba7e60e01b92505050610d0a565b610ced828686611948565b15610d0357631626ba7e60e01b92505050610d0a565b6000925050505b92915050565b426000541115610d4c576040517f6315bfbb00000000000000000000000000000000000000000000000000000000815260040160405180910390fd5b6000610d56610610565b90503373ffffffffffffffffffffffffffffffffffffffff168173ffffffffffffffffffffffffffffffffffffffff1614610dbd576040517fea8e4eb500000000000000000000000000000000000000000000000000000000815260040160405180910390fd5b81600160008373ffffffffffffffffffffffffffffffffffffffff1673ffffffffffffffffffffffffffffffffffffffff16815260200190815260200160002060006101000a81548173ffffffffffffffffffffffffffffffffffffffff021916908373ffffffffffffffffffffffffffffffffffffffff1602179055507f0ef3c7eb9dbcf33ddf032f4cce366a07eda85eed03e3172e4a90c4cc16d578868183604051610e6c929190612c3e565b60405180910390a15050565b60016020528060005260406000206000915054906101000a900473ffffffffffffffffffffffffffffffffffffffff1681565b60008390503073ffffffffffffffffffffffffffffffffffffffff168173ffffffffffffffffffffffffffffffffffffffff16636352211e846040518263ffffffff1660e01b8152600401610f0091906125c9565b602060405180830381865afa158015610f1d573d6000803e3d6000fd5b505050506040513d601f19601f82011682018060405250810190610f4191906127b5565b73ffffffffffffffffffffffffffffffffffffffff1614610f97576040517f08c379a0000000000000000000000000000000000000000000000000000000008152600401610f8e90612cd9565b60405180910390fd5b8073ffffffffffffffffffffffffffffffffffffffff166323b872dd3085856040518463ffffffff1660e01b8152600401610fd493929190612cf9565b600060405180830381600087803b158015610fee57600080fd5b505af1158015611002573d6000803e3d6000fd5b505050507f209eb5082bc3bcbd509ae679a680b3bb2a11b77fea542a93e205020af76529fc30848460405161103993929190612cf9565b60405180910390a150505050565b6000849050818173ffffffffffffffffffffffffffffffffffffffff1662fdd58e30866040518363ffffffff1660e01b8152600401611087929190612777565b602060405180830381865afa1580156110a4573d6000803e3d6000fd5b505050506040513d601f19601f820116820180604052508101906110c8919061296b565b1015611109576040517f08c379a000000000000000000000000000000000000000000000000000000000815260040161110090612a0a565b60405180910390fd5b8073ffffffffffffffffffffffffffffffffffffffff1663f242432a308686866040518563ffffffff1660e01b81526004016111489493929190612d30565b600060405180830381600087803b15801561116257600080fd5b505af1158015611176573d6000803e3d6000fd5b505050507fb4b510017fa3548bf934bbeafb570ebc4f19982ace19ae88d2de59a13addebf1308585856040516111af9493929190612d88565b60405180910390a15050505050565b60604260005411156111fc576040517f6315bfbb00000000000000000000000000000000000000000000000000000000815260040160405180910390fd5b60006001600061120a610610565b73ffffffffffffffffffffffffffffffffffffffff1673ffffffffffffffffffffffffffffffffffffffff16815260200190815260200160002060009054906101000a900473ffffffffffffffffffffffffffffffffffffffff1690508073ffffffffffffffffffffffffffffffffffffffff163373ffffffffffffffffffffffffffffffffffffffff16146112cc576040517fea8e4eb500000000000000000000000000000000000000000000000000000000815260040160405180910390fd5b6112d8868686866106ba565b915050949350505050565b7f000000000000000000000000000000000000000000000000000000000000000081565b6060426000541115611345576040517f6315bfbb00000000000000000000000000000000000000000000000000000000815260040160405180910390fd5b600061134f610610565b90508073ffffffffffffffffffffffffffffffffffffffff163373ffffffffffffffffffffffffffffffffffffffff16146113b6576040517fea8e4eb500000000000000000000000000000000000000000000000000000000815260040160405180910390fd5b6113c2868686866106ba565b915050949350505050565b60004260005411905090565b60005481565b606042600054111561141d576040517f6315bfbb00000000000000000000000000000000000000000000000000000000815260040160405180910390fd5b60006114276118fc565b50509050468103611464576040517fea8e4eb500000000000000000000000000000000000000000000000000000000815260040160405180910390fd5b7f000000000000000000000000000000000000000000000000000000000000000073ffffffffffffffffffffffffffffffffffffffff1663c8552afd82336040518363ffffffff1660e01b81526004016114bf929190612dcd565b602060405180830381865afa1580156114dc573d6000803e3d6000fd5b505050506040513d601f19601f820116820180604052508101906115009190612857565b611536576040517fea8e4eb500000000000000000000000000000000000000000000000000000000815260040160405180910390fd5b611542868686866106ba565b915050949350505050565b600063bc197c8160e01b905095945050505050565b42600054111561159e576040517f6315bfbb00000000000000000000000000000000000000000000000000000000815260040160405180910390fd5b6301e13380426115ae9190612df6565b8111156115e7576040517f0c0a7be800000000000000000000000000000000000000000000000000000000815260040160405180910390fd5b60006115f1610610565b90503373ffffffffffffffffffffffffffffffffffffffff168173ffffffffffffffffffffffffffffffffffffffff1614611658576040517fea8e4eb500000000000000000000000000000000000000000000000000000000815260040160405180910390fd5b816000819055507fa7b24c66dd3269a292a60b3facdbb8f3e7557d1e19e64d99e0d6ee7250be63ad8260405161168e91906125c9565b60405180910390a15050565b600063f23a6e6160e01b905095945050505050565b6000806116ba6118fc565b90915080925081935050509091565b6000806000806116d76118fc565b92509250925046831461178a577f000000000000000000000000000000000000000000000000000000000000000073ffffffffffffffffffffffffffffffffffffffff1663c8552afd84876040518363ffffffff1660e01b815260040161173f929190612dcd565b602060405180830381865afa15801561175c573d6000803e3d6000fd5b505050506040513d601f19601f820116820180604052508101906117809190612857565b93505050506118f7565b60008273ffffffffffffffffffffffffffffffffffffffff16636352211e836040518263ffffffff1660e01b81526004016117c591906125c9565b602060405180830381865afa1580156117e2573d6000803e3d6000fd5b505050506040513d601f19601f8201168201806040525081019061180691906127b5565b90508073ffffffffffffffffffffffffffffffffffffffff168673ffffffffffffffffffffffffffffffffffffffff16036118485760019450505050506118f7565b6000600160008373ffffffffffffffffffffffffffffffffffffffff1673ffffffffffffffffffffffffffffffffffffffff16815260200190815260200160002060009054906101000a900473ffffffffffffffffffffffffffffffffffffffff1690508073ffffffffffffffffffffffffffffffffffffffff168773ffffffffffffffffffffffffffffffffffffffff16036118ed576001955050505050506118f7565b6000955050505050505b919050565b60008060008061190b306119d7565b9050600081510361192757600080600093509350935050611943565b8080602001905181019061193b9190612e68565b935093509350505b909192565b60008060006119578585611a09565b915091506000600481111561196f5761196e612ebb565b5b81600481111561198257611981612ebb565b5b1480156119ba57508573ffffffffffffffffffffffffffffffffffffffff168273ffffffffffffffffffffffffffffffffffffffff16145b806119cc57506119cb868686611a5a565b5b925050509392505050565b606060008273ffffffffffffffffffffffffffffffffffffffff163b9050611a0183602e83611b9e565b915050919050565b6000806041835103611a4a5760008060006020860151925060408601519150606086015160001a9050611a3e87828585611c83565b94509450505050611a53565b60006002915091505b9250929050565b60008060008573ffffffffffffffffffffffffffffffffffffffff16631626ba7e60e01b8686604051602401611a91929190612ef9565b604051602081830303815290604052907bffffffffffffffffffffffffffffffffffffffffffffffffffffffff19166020820180517bffffffffffffffffffffffffffffffffffffffffffffffffffffffff8381831617835250505050604051611afb9190612f5a565b600060405180830381855afa9150503d8060008114611b36576040519150601f19603f3d011682016040523d82523d6000602084013e611b3b565b606091505b5091509150818015611b4f57506020815110155b8015611b935750631626ba7e60e01b7bffffffffffffffffffffffffffffffffffffffffffffffffffffffff191681806020019051810190611b919190612f86565b145b925050509392505050565b60606000611bab85611d65565b905060008103611bcd5760405180602001604052806000815250915050611c7c565b80841115611bed5760405180602001604052806000815250915050611c7c565b83831015611c36578084846040517f2c4a89fa000000000000000000000000000000000000000000000000000000008152600401611c2d93929190612fb3565b60405180910390fd5b60008484039050600085830390506000828210611c535782611c55565b815b90506040519450601f19601f60208301011685016040528085528087602087018a3c505050505b9392505050565b6000807f7fffffffffffffffffffffffffffffff5d576e7357a4501ddfe92f46681b20a08360001c1115611cbe576000600391509150611d5c565b600060018787878760405160008152602001604052604051611ce39493929190613006565b6020604051602081039080840390855afa158015611d05573d6000803e3d6000fd5b505050602060405103519050600073ffffffffffffffffffffffffffffffffffffffff168173ffffffffffffffffffffffffffffffffffffffff1603611d5357600060019250925050611d5c565b80600092509250505b94509492505050565b6000813b9050919050565b6000604051905090565b600080fd5b600080fd5b60007fffffffff0000000000000000000000000000000000000000000000000000000082169050919050565b611db981611d84565b8114611dc457600080fd5b50565b600081359050611dd681611db0565b92915050565b600060208284031215611df257611df1611d7a565b5b6000611e0084828501611dc7565b91505092915050565b60008115159050919050565b611e1e81611e09565b82525050565b6000602082019050611e396000830184611e15565b92915050565b600073ffffffffffffffffffffffffffffffffffffffff82169050919050565b6000611e6a82611e3f565b9050919050565b611e7a81611e5f565b8114611e8557600080fd5b50565b600081359050611e9781611e71565b92915050565b600080fd5b6000601f19601f8301169050919050565b7f4e487b7100000000000000000000000000000000000000000000000000000000600052604160045260246000fd5b611eeb82611ea2565b810181811067ffffffffffffffff82111715611f0a57611f09611eb3565b5b80604052505050565b6000611f1d611d70565b9050611f298282611ee2565b919050565b600067ffffffffffffffff821115611f4957611f48611eb3565b5b602082029050602081019050919050565b600080fd5b6000819050919050565b611f7281611f5f565b8114611f7d57600080fd5b50565b600081359050611f8f81611f69565b92915050565b6000611fa8611fa384611f2e565b611f13565b90508083825260208201905060208402830185811115611fcb57611fca611f5a565b5b835b81811015611ff45780611fe08882611f80565b845260208401935050602081019050611fcd565b5050509392505050565b600082601f83011261201357612012611e9d565b5b8135612023848260208601611f95565b91505092915050565b6000806000806080858703121561204657612045611d7a565b5b600061205487828801611e88565b945050602061206587828801611e88565b935050604085013567ffffffffffffffff81111561208657612085611d7f565b5b61209287828801611ffe565b925050606085013567ffffffffffffffff8111156120b3576120b2611d7f565b5b6120bf87828801611ffe565b91505092959194509250565b600080fd5b600067ffffffffffffffff8211156120eb576120ea611eb3565b5b6120f482611ea2565b9050602081019050919050565b82818337600083830152505050565b600061212361211e846120d0565b611f13565b90508281526020810184848401111561213f5761213e6120cb565b5b61214a848285612101565b509392505050565b600082601f83011261216757612166611e9d565b5b8135612177848260208601612110565b91505092915050565b6000806000806080858703121561219a57612199611d7a565b5b60006121a887828801611e88565b94505060206121b987828801611e88565b93505060406121ca87828801611f80565b925050606085013567ffffffffffffffff8111156121eb576121ea611d7f565b5b6121f787828801612152565b91505092959194509250565b61220c81611d84565b82525050565b60006020820190506122276000830184612203565b92915050565b6000819050919050565b6122408161222d565b811461224b57600080fd5b50565b60008135905061225d81612237565b92915050565b6000806040838503121561227a57612279611d7a565b5b60006122888582860161224e565b925050602083013567ffffffffffffffff8111156122a9576122a8611d7f565b5b6122b585828601612152565b9150509250929050565b6000602082840312156122d5576122d4611d7a565b5b60006122e384828501611e88565b91505092915050565b6122f581611e5f565b82525050565b600060208201905061231060008301846122ec565b92915050565b60008060006060848603121561232f5761232e611d7a565b5b600061233d86828701611e88565b935050602061234e86828701611e88565b925050604061235f86828701611f80565b9150509250925092565b6000806000806080858703121561238357612382611d7a565b5b600061239187828801611e88565b94505060206123a287828801611e88565b93505060406123b387828801611f80565b92505060606123c487828801611f80565b91505092959194509250565b600080fd5b60008083601f8401126123eb576123ea611e9d565b5b8235905067ffffffffffffffff811115612408576124076123d0565b5b60208301915083600182028301111561242457612423611f5a565b5b9250929050565b6000806000806060858703121561244557612444611d7a565b5b600061245387828801611e88565b945050602061246487828801611f80565b935050604085013567ffffffffffffffff81111561248557612484611d7f565b5b612491878288016123d5565b925092505092959194509250565b600081519050919050565b600082825260208201905092915050565b60005b838110156124d95780820151818401526020810190506124be565b60008484015250505050565b60006124f08261249f565b6124fa81856124aa565b935061250a8185602086016124bb565b61251381611ea2565b840191505092915050565b6000602082019050818103600083015261253881846124e5565b905092915050565b6000819050919050565b600061256561256061255b84611e3f565b612540565b611e3f565b9050919050565b60006125778261254a565b9050919050565b60006125898261256c565b9050919050565b6125998161257e565b82525050565b60006020820190506125b46000830184612590565b92915050565b6125c381611f5f565b82525050565b60006020820190506125de60008301846125ba565b92915050565b600080600080600060a08688031215612600576125ff611d7a565b5b600061260e88828901611e88565b955050602061261f88828901611e88565b945050604086013567ffffffffffffffff8111156126405761263f611d7f565b5b61264c88828901611ffe565b935050606086013567ffffffffffffffff81111561266d5761266c611d7f565b5b61267988828901611ffe565b925050608086013567ffffffffffffffff81111561269a57612699611d7f565b5b6126a688828901612152565b9150509295509295909350565b6000602082840312156126c9576126c8611d7a565b5b60006126d784828501611f80565b91505092915050565b600080600080600060a086880312156126fc576126fb611d7a565b5b600061270a88828901611e88565b955050602061271b88828901611e88565b945050604061272c88828901611f80565b935050606061273d88828901611f80565b925050608086013567ffffffffffffffff81111561275e5761275d611d7f565b5b61276a88828901612152565b9150509295509295909350565b600060408201905061278c60008301856122ec565b61279960208301846125ba565b9392505050565b6000815190506127af81611e71565b92915050565b6000602082840312156127cb576127ca611d7a565b5b60006127d9848285016127a0565b91505092915050565b600081905092915050565b60006127f983856127e2565b9350612806838584612101565b82840190509392505050565b600061281f8284866127ed565b91508190509392505050565b61283481611e09565b811461283f57600080fd5b50565b6000815190506128518161282b565b92915050565b60006020828403121561286d5761286c611d7a565b5b600061287b84828501612842565b91505092915050565b600082825260208201905092915050565b7f4552433131353548616e646c65723a20496e76616c696420696e707574206c6560008201527f6e67746800000000000000000000000000000000000000000000000000000000602082015250565b60006128f1602483612884565b91506128fc82612895565b604082019050919050565b60006020820190508181036000830152612920816128e4565b9050919050565b7f4e487b7100000000000000000000000000000000000000000000000000000000600052603260045260246000fd5b60008151905061296581611f69565b92915050565b60006020828403121561298157612980611d7a565b5b600061298f84828501612956565b91505092915050565b7f4552433131353548616e646c65723a20496e73756666696369656e742062616c60008201527f616e636500000000000000000000000000000000000000000000000000000000602082015250565b60006129f4602483612884565b91506129ff82612998565b604082019050919050565b60006020820190508181036000830152612a23816129e7565b9050919050565b7f4e487b7100000000000000000000000000000000000000000000000000000000600052601160045260246000fd5b6000612a6482611f5f565b91507fffffffffffffffffffffffffffffffffffffffffffffffffffffffffffffffff8203612a9657612a95612a2a565b5b600182019050919050565b600081519050919050565b600082825260208201905092915050565b6000819050602082019050919050565b612ad681611f5f565b82525050565b6000612ae88383612acd565b60208301905092915050565b6000602082019050919050565b6000612b0c82612aa1565b612b168185612aac565b9350612b2183612abd565b8060005b83811015612b52578151612b398882612adc565b9750612b4483612af4565b925050600181019050612b25565b5085935050505092915050565b50565b6000612b6f6000836124aa565b9150612b7a82612b5f565b600082019050919050565b600060a082019050612b9a60008301876122ec565b612ba760208301866122ec565b8181036040830152612bb98185612b01565b90508181036060830152612bcd8184612b01565b90508181036080830152612be081612b62565b905095945050505050565b6000608082019050612c0060008301876122ec565b612c0d60208301866122ec565b8181036040830152612c1f8185612b01565b90508181036060830152612c338184612b01565b905095945050505050565b6000604082019050612c5360008301856122ec565b612c6060208301846122ec565b9392505050565b7f4e465448616e646c65723a2053656e646572206973206e6f7420746865206f7760008201527f6e65720000000000000000000000000000000000000000000000000000000000602082015250565b6000612cc3602383612884565b9150612cce82612c67565b604082019050919050565b60006020820190508181036000830152612cf281612cb6565b9050919050565b6000606082019050612d0e60008301866122ec565b612d1b60208301856122ec565b612d2860408301846125ba565b949350505050565b600060a082019050612d4560008301876122ec565b612d5260208301866122ec565b612d5f60408301856125ba565b612d6c60608301846125ba565b8181036080830152612d7d81612b62565b905095945050505050565b6000608082019050612d9d60008301876122ec565b612daa60208301866122ec565b612db760408301856125ba565b612dc460608301846125ba565b95945050505050565b6000604082019050612de260008301856125ba565b612def60208301846122ec565b9392505050565b6000612e0182611f5f565b9150612e0c83611f5f565b9250828201905080821115612e2457612e23612a2a565b5b92915050565b6000612e3582611e3f565b9050919050565b612e4581612e2a565b8114612e5057600080fd5b50565b600081519050612e6281612e3c565b92915050565b600080600060608486031215612e8157612e80611d7a565b5b6000612e8f86828701612956565b9350506020612ea086828701612e53565b9250506040612eb186828701612956565b9150509250925092565b7f4e487b7100000000000000000000000000000000000000000000000000000000600052602160045260246000fd5b612ef38161222d565b82525050565b6000604082019050612f0e6000830185612eea565b8181036020830152612f2081846124e5565b90509392505050565b6000612f348261249f565b612f3e81856127e2565b9350612f4e8185602086016124bb565b80840191505092915050565b6000612f668284612f29565b915081905092915050565b600081519050612f8081612237565b92915050565b600060208284031215612f9c57612f9b611d7a565b5b6000612faa84828501612f71565b91505092915050565b6000606082019050612fc860008301866125ba565b612fd560208301856125ba565b612fe260408301846125ba565b949350505050565b600060ff82169050919050565b61300081612fea565b82525050565b600060808201905061301b6000830187612eea565b6130286020830186612ff7565b6130356040830185612eea565b6130426060830184612eea565b9594505050505056fea26469706673582212207e8428381a5f91fe5b68f7a80b8c01b0382c42034dc74f71c659a2e04a6bc8e164736f6c63430008120033",
  "linkReferences": {},
  "deployedLinkReferences": {}
}